{
  "_format": "hh-sol-artifact-1",
  "contractName": "Velamis",
  "sourceName": "contracts/VELAMIS.sol",
  "abi": [
    {
      "inputs": [],
      "stateMutability": "nonpayable",
      "type": "constructor"
    },
    {
      "anonymous": false,
      "inputs": [
        {
          "indexed": true,
          "internalType": "address",
          "name": "owner",
          "type": "address"
        },
        {
          "indexed": true,
          "internalType": "address",
          "name": "spender",
          "type": "address"
        },
        {
          "indexed": false,
          "internalType": "uint256",
          "name": "value",
          "type": "uint256"
        }
      ],
      "name": "Approval",
      "type": "event"
    },
    {
      "anonymous": false,
      "inputs": [
        {
          "indexed": true,
          "internalType": "address",
          "name": "from",
          "type": "address"
        },
        {
          "indexed": true,
          "internalType": "address",
          "name": "to",
          "type": "address"
        },
        {
          "indexed": false,
          "internalType": "uint256",
          "name": "value",
          "type": "uint256"
        }
      ],
      "name": "Transfer",
      "type": "event"
    },
    {
      "inputs": [],
      "name": "AdvisoryPercent",
      "outputs": [
        {
          "internalType": "uint256",
          "name": "",
          "type": "uint256"
        }
      ],
      "stateMutability": "view",
      "type": "function"
    },
    {
      "inputs": [],
      "name": "AdvisoryWallet",
      "outputs": [
        {
          "internalType": "address",
          "name": "",
          "type": "address"
        }
      ],
      "stateMutability": "view",
      "type": "function"
    },
    {
      "inputs": [],
      "name": "CompanyPercent",
      "outputs": [
        {
          "internalType": "uint256",
          "name": "",
          "type": "uint256"
        }
      ],
      "stateMutability": "view",
      "type": "function"
    },
    {
      "inputs": [],
      "name": "CompanyWallet",
      "outputs": [
        {
          "internalType": "address",
          "name": "",
          "type": "address"
        }
      ],
      "stateMutability": "view",
      "type": "function"
    },
    {
      "inputs": [],
      "name": "EcoGrowthPercent",
      "outputs": [
        {
          "internalType": "uint256",
          "name": "",
          "type": "uint256"
        }
      ],
      "stateMutability": "view",
      "type": "function"
    },
    {
      "inputs": [],
      "name": "EcoGrowthWallet",
      "outputs": [
        {
          "internalType": "address",
          "name": "",
          "type": "address"
        }
      ],
      "stateMutability": "view",
      "type": "function"
    },
    {
      "inputs": [
        {
          "internalType": "uint256",
          "name": "",
          "type": "uint256"
        }
      ],
      "name": "IssuancePercent",
      "outputs": [
        {
          "internalType": "uint256",
          "name": "",
          "type": "uint256"
        }
      ],
      "stateMutability": "view",
      "type": "function"
    },
    {
      "inputs": [],
      "name": "ManageWallet",
      "outputs": [
        {
          "internalType": "address",
          "name": "",
          "type": "address"
        }
      ],
      "stateMutability": "view",
      "type": "function"
    },
    {
      "inputs": [],
      "name": "PauseWallet",
      "outputs": [
        {
          "internalType": "address",
          "name": "",
          "type": "address"
        }
      ],
      "stateMutability": "view",
      "type": "function"
    },
    {
      "inputs": [],
      "name": "PrivSalePercent",
      "outputs": [
        {
          "internalType": "uint256",
          "name": "",
          "type": "uint256"
        }
      ],
      "stateMutability": "view",
      "type": "function"
    },
    {
      "inputs": [],
      "name": "PrivSaleWallet",
      "outputs": [
        {
          "internalType": "address",
          "name": "",
          "type": "address"
        }
      ],
      "stateMutability": "view",
      "type": "function"
    },
    {
      "inputs": [],
      "name": "PubSalePercent",
      "outputs": [
        {
          "internalType": "uint256",
          "name": "",
          "type": "uint256"
        }
      ],
      "stateMutability": "view",
      "type": "function"
    },
    {
      "inputs": [],
      "name": "PubSaleWallet",
      "outputs": [
        {
          "internalType": "address",
          "name": "",
          "type": "address"
        }
      ],
      "stateMutability": "view",
      "type": "function"
    },
    {
      "inputs": [],
      "name": "StakingRewardPercent",
      "outputs": [
        {
          "internalType": "uint256",
          "name": "",
          "type": "uint256"
        }
      ],
      "stateMutability": "view",
      "type": "function"
    },
    {
      "inputs": [],
      "name": "StakingRewardWallet",
      "outputs": [
        {
          "internalType": "address",
          "name": "",
          "type": "address"
        }
      ],
      "stateMutability": "view",
      "type": "function"
    },
    {
      "inputs": [],
      "name": "TeamPercent",
      "outputs": [
        {
          "internalType": "uint256",
          "name": "",
          "type": "uint256"
        }
      ],
      "stateMutability": "view",
      "type": "function"
    },
    {
      "inputs": [],
      "name": "TeamWallet",
      "outputs": [
        {
          "internalType": "address",
          "name": "",
          "type": "address"
        }
      ],
      "stateMutability": "view",
      "type": "function"
    },
    {
      "inputs": [],
      "name": "TreasuryPercent",
      "outputs": [
        {
          "internalType": "uint256",
          "name": "",
          "type": "uint256"
        }
      ],
      "stateMutability": "view",
      "type": "function"
    },
    {
      "inputs": [],
      "name": "TreasuryWallet",
      "outputs": [
        {
          "internalType": "address",
          "name": "",
          "type": "address"
        }
      ],
      "stateMutability": "view",
      "type": "function"
    },
    {
      "inputs": [
        {
          "internalType": "address",
          "name": "owner",
          "type": "address"
        },
        {
          "internalType": "address",
          "name": "spender",
          "type": "address"
        }
      ],
      "name": "allowance",
      "outputs": [
        {
          "internalType": "uint256",
          "name": "",
          "type": "uint256"
        }
      ],
      "stateMutability": "view",
      "type": "function"
    },
    {
      "inputs": [
        {
          "internalType": "address",
          "name": "spender",
          "type": "address"
        },
        {
          "internalType": "uint256",
          "name": "amount",
          "type": "uint256"
        }
      ],
      "name": "approve",
      "outputs": [
        {
          "internalType": "bool",
          "name": "",
          "type": "bool"
        }
      ],
      "stateMutability": "nonpayable",
      "type": "function"
    },
    {
      "inputs": [
        {
          "internalType": "address",
          "name": "account",
          "type": "address"
        }
      ],
      "name": "balanceOf",
      "outputs": [
        {
          "internalType": "uint256",
          "name": "",
          "type": "uint256"
        }
      ],
      "stateMutability": "view",
      "type": "function"
    },
    {
      "inputs": [],
      "name": "burnFee",
      "outputs": [
        {
          "internalType": "uint256",
          "name": "",
          "type": "uint256"
        }
      ],
      "stateMutability": "view",
      "type": "function"
    },
    {
      "inputs": [],
      "name": "burnTime",
      "outputs": [
        {
          "internalType": "uint256",
          "name": "",
          "type": "uint256"
        }
      ],
      "stateMutability": "view",
      "type": "function"
    },
    {
      "inputs": [
        {
          "internalType": "uint256",
          "name": "amount",
          "type": "uint256"
        }
      ],
      "name": "burnTokens",
      "outputs": [],
      "stateMutability": "nonpayable",
      "type": "function"
    },
    {
      "inputs": [],
      "name": "decimals",
      "outputs": [
        {
          "internalType": "uint8",
          "name": "",
          "type": "uint8"
        }
      ],
      "stateMutability": "view",
      "type": "function"
    },
    {
      "inputs": [
        {
          "internalType": "address",
          "name": "spender",
          "type": "address"
        },
        {
          "internalType": "uint256",
          "name": "subtractedValue",
          "type": "uint256"
        }
      ],
      "name": "decreaseAllowance",
      "outputs": [
        {
          "internalType": "bool",
          "name": "",
          "type": "bool"
        }
      ],
      "stateMutability": "nonpayable",
      "type": "function"
    },
    {
      "inputs": [
        {
          "internalType": "uint8",
          "name": "index",
          "type": "uint8"
        }
      ],
      "name": "distributeTokens",
      "outputs": [],
      "stateMutability": "nonpayable",
      "type": "function"
    },
    {
      "inputs": [
        {
          "internalType": "address",
          "name": "spender",
          "type": "address"
        },
        {
          "internalType": "uint256",
          "name": "addedValue",
          "type": "uint256"
        }
      ],
      "name": "increaseAllowance",
      "outputs": [
        {
          "internalType": "bool",
          "name": "",
          "type": "bool"
        }
      ],
      "stateMutability": "nonpayable",
      "type": "function"
    },
    {
      "inputs": [],
      "name": "intervalIssuance",
      "outputs": [
        {
          "internalType": "uint256",
          "name": "",
          "type": "uint256"
        }
      ],
      "stateMutability": "view",
      "type": "function"
    },
    {
      "inputs": [],
      "name": "issuanceIndex",
      "outputs": [
        {
          "internalType": "uint256",
          "name": "",
          "type": "uint256"
        }
      ],
      "stateMutability": "view",
      "type": "function"
    },
    {
      "inputs": [],
      "name": "issuanceTime",
      "outputs": [
        {
          "internalType": "uint256",
          "name": "",
          "type": "uint256"
        }
      ],
      "stateMutability": "view",
      "type": "function"
    },
    {
      "inputs": [],
      "name": "issueTokens",
      "outputs": [],
      "stateMutability": "nonpayable",
      "type": "function"
    },
    {
      "inputs": [],
      "name": "name",
      "outputs": [
        {
          "internalType": "string",
          "name": "",
          "type": "string"
        }
      ],
      "stateMutability": "view",
      "type": "function"
    },
    {
      "inputs": [],
      "name": "pauseContract",
      "outputs": [],
      "stateMutability": "nonpayable",
      "type": "function"
    },
    {
      "inputs": [],
      "name": "starttime",
      "outputs": [
        {
          "internalType": "uint256",
          "name": "",
          "type": "uint256"
        }
      ],
      "stateMutability": "view",
      "type": "function"
    },
    {
      "inputs": [],
      "name": "status",
      "outputs": [
        {
          "internalType": "bool",
          "name": "",
          "type": "bool"
        }
      ],
      "stateMutability": "view",
      "type": "function"
    },
    {
      "inputs": [],
      "name": "symbol",
      "outputs": [
        {
          "internalType": "string",
          "name": "",
          "type": "string"
        }
      ],
      "stateMutability": "view",
      "type": "function"
    },
    {
      "inputs": [],
      "name": "totalBurnedTokens",
      "outputs": [
        {
          "internalType": "uint256",
          "name": "",
          "type": "uint256"
        }
      ],
      "stateMutability": "view",
      "type": "function"
    },
    {
      "inputs": [],
      "name": "totalSupply",
      "outputs": [
        {
          "internalType": "uint256",
          "name": "",
          "type": "uint256"
        }
      ],
      "stateMutability": "view",
      "type": "function"
    },
    {
      "inputs": [
        {
          "internalType": "address",
          "name": "to",
          "type": "address"
        },
        {
          "internalType": "uint256",
          "name": "amount",
          "type": "uint256"
        }
      ],
      "name": "transfer",
      "outputs": [
        {
          "internalType": "bool",
          "name": "",
          "type": "bool"
        }
      ],
      "stateMutability": "nonpayable",
      "type": "function"
    },
    {
      "inputs": [
        {
          "internalType": "address",
          "name": "from",
          "type": "address"
        },
        {
          "internalType": "address",
          "name": "to",
          "type": "address"
        },
        {
          "internalType": "uint256",
          "name": "amount",
          "type": "uint256"
        }
      ],
      "name": "transferFrom",
      "outputs": [
        {
          "internalType": "bool",
          "name": "",
          "type": "bool"
        }
      ],
      "stateMutability": "nonpayable",
      "type": "function"
    }
  ],
  "bytecode": "0x6080604052604051806102a001604052806108ae61ffff16815260200161095d61ffff168152602001610be061ffff168152602001610cde61ffff16815260200161109d61ffff16815260200161119b61ffff16815260200161154161ffff1681526020016115f761ffff16815260200161192261ffff1681526020016119d761ffff168152602001611ca061ffff168152602001611d1f61ffff168152602001611f4f61ffff168152602001611fce61ffff1681526020016121f261ffff16815260200161224d61ffff16815260200161241261ffff16815260200161264f61ffff16815260200161269761ffff1681526020016126e061ffff16815260200161271061ffff1681525060009060156200011c92919062000378565b506040518060400160405280600781526020017f56454c414d495300000000000000000000000000000000000000000000000000815250600390805190602001906200016a929190620003d0565b506040518060400160405280600381526020017f56454c000000000000000000000000000000000000000000000000000000000081525060049080519060200190620001b8929190620003d0565b506012600560006101000a81548160ff021916908360ff160217905550600a6009556000600a55348015620001ec57600080fd5b50600560009054906101000a900460ff16600a6200020b919062000588565b6311e1a3006200021c9190620006c5565b60078190555060006006819055506001600d60006101000a81548160ff021916908315150217905550600e54600b819055506000600a819055506000600f81905550600867ffffffffffffffff811115620002a0577f4e487b7100000000000000000000000000000000000000000000000000000000600052604160045260246000fd5b604051908082528060200260200182016040528015620002cf5781602001602082028036833780820191505090505b5060089080519060200190620002e792919062000461565b5060005b6008811015620003715760006008828154811062000332577f4e487b7100000000000000000000000000000000000000000000000000000000600052603260045260246000fd5b90600052602060002090602091828204019190066101000a81548160ff0219169083151502179055508080620003689062000773565b915050620002eb565b506200082c565b828054828255906000526020600020908101928215620003bd579160200282015b82811115620003bc578251829061ffff1690559160200191906001019062000399565b5b509050620003cc91906200050e565b5090565b828054620003de906200073d565b90600052602060002090601f0160209004810192826200040257600085556200044e565b82601f106200041d57805160ff19168380011785556200044e565b828001600101855582156200044e579182015b828111156200044d57825182559160200191906001019062000430565b5b5090506200045d91906200050e565b5090565b82805482825590600052602060002090601f01602090048101928215620004fb5791602002820160005b83821115620004ca57835183826101000a81548160ff02191690831515021790555092602001926001016020816000010492830192600103026200048b565b8015620004f95782816101000a81549060ff0219169055600101602081600001049283019260010302620004ca565b505b5090506200050a91906200050e565b5090565b5b80821115620005295760008160009055506001016200050f565b5090565b6000808291508390505b60018511156200057f57808604811115620005575762000556620007c1565b5b6001851615620005675780820291505b808102905062000577856200081f565b945062000537565b94509492505050565b6000620005958262000726565b9150620005a28362000730565b9250620005d17fffffffffffffffffffffffffffffffffffffffffffffffffffffffffffffffff8484620005d9565b905092915050565b600082620005eb5760019050620006be565b81620005fb5760009050620006be565b81600181146200061457600281146200061f5762000655565b6001915050620006be565b60ff841115620006345762000633620007c1565b5b8360020a9150848211156200064e576200064d620007c1565b5b50620006be565b5060208310610133831016604e8410600b84101617156200068f5782820a905083811115620006895762000688620007c1565b5b620006be565b6200069e84848460016200052d565b92509050818404811115620006b857620006b7620007c1565b5b81810290505b9392505050565b6000620006d28262000726565b9150620006df8362000726565b9250817fffffffffffffffffffffffffffffffffffffffffffffffffffffffffffffffff04831182151516156200071b576200071a620007c1565b5b828202905092915050565b6000819050919050565b600060ff82169050919050565b600060028204905060018216806200075657607f821691505b602082108114156200076d576200076c620007f0565b5b50919050565b6000620007808262000726565b91507fffffffffffffffffffffffffffffffffffffffffffffffffffffffffffffffff821415620007b657620007b5620007c1565b5b600182019050919050565b7f4e487b7100000000000000000000000000000000000000000000000000000000600052601160045260246000fd5b7f4e487b7100000000000000000000000000000000000000000000000000000000600052602260045260246000fd5b60008160011c9050919050565b612df5806200083c6000396000f3fe608060405234801561001057600080fd5b506004361061025e5760003560e01c8063677a887011610146578063a4be4b02116100c3578063db0bbaf311610087578063db0bbaf3146106ed578063dd62ed3e1461070b578063ebf6cf9b1461073b578063f4dd662614610759578063fce589d814610777578063fe738f67146107955761025e565b8063a4be4b0214610647578063a9059cbb14610665578063af6cb99e14610695578063d1d8523a146106b3578063d2267a6e146106d15761025e565b806380c763841161010a57806380c763841461059f5780638b8cb114146105bd5780638da58897146105db57806395d89b41146105f9578063a457c2d7146106175761025e565b8063677a8870146104e75780636d1b229d1461050557806370a08231146105215780637ba06d78146105515780637fc51ee11461056f5761025e565b8063313ce567116101df5780635084ae15116101a35780635084ae151461044757806350d1197e14610465578063555f323a1461048357806356b05a2a146104a157806360ab5852146104bf578063676d0e8a146104c95761025e565b8063313ce567146103b3578063384d4241146103d157806339509351146103ef578063439766ce1461041f5780634b18e642146104295761025e565b806318160ddd1161022657806318160ddd1461030b578063200d2ed21461032957806323b872dd1461034757806327a5331e146103775780632bdcdb78146103955761025e565b806306fdde0314610263578063087140d414610281578063095ea7b31461029f57806309c03d52146102cf57806311ffeaf2146102ed575b600080fd5b61026b6107b3565b60405161027891906123ac565b60405180910390f35b610289610845565b6040516102969190612376565b60405180910390f35b6102b960048036038101906102b49190612020565b61085d565b6040516102c69190612391565b60405180910390f35b6102d76108d0565b6040516102e49190612376565b60405180910390f35b6102f56108e8565b6040516103029190612376565b60405180910390f35b610313610900565b60405161032091906125ee565b60405180910390f35b61033161090a565b60405161033e9190612391565b60405180910390f35b610361600480360381019061035c9190611fd1565b61091d565b60405161036e9190612391565b60405180910390f35b61037f61099c565b60405161038c9190612376565b60405180910390f35b61039d6109b4565b6040516103aa91906125ee565b60405180910390f35b6103bb6109ba565b6040516103c89190612609565b60405180910390f35b6103d96109d1565b6040516103e691906125ee565b60405180910390f35b61040960048036038101906104049190612020565b6109d6565b6040516104169190612391565b60405180910390f35b610427610ad0565b005b610431610b76565b60405161043e91906125ee565b60405180910390f35b61044f610b7d565b60405161045c9190612376565b60405180910390f35b61046d610b95565b60405161047a91906125ee565b60405180910390f35b61048b610b9a565b60405161049891906125ee565b60405180910390f35b6104a9610ba0565b6040516104b691906125ee565b60405180910390f35b6104c7610ba5565b005b6104d1610f6e565b6040516104de91906125ee565b60405180910390f35b6104ef610f73565b6040516104fc9190612376565b60405180910390f35b61051f600480360381019061051a919061205c565b610f8b565b005b61053b60048036038101906105369190611f6c565b61112d565b60405161054891906125ee565b60405180910390f35b610559611176565b6040516105669190612376565b60405180910390f35b6105896004803603810190610584919061205c565b61118e565b60405161059691906125ee565b60405180910390f35b6105a76111b2565b6040516105b491906125ee565b60405180910390f35b6105c56111b7565b6040516105d29190612376565b60405180910390f35b6105e36111cf565b6040516105f091906125ee565b60405180910390f35b6106016111d5565b60405161060e91906123ac565b60405180910390f35b610631600480360381019061062c9190612020565b611267565b60405161063e9190612391565b60405180910390f35b61064f6113a1565b60405161065c91906125ee565b60405180910390f35b61067f600480360381019061067a9190612020565b6113a6565b60405161068c9190612391565b60405180910390f35b61069d611419565b6040516106aa91906125ee565b60405180910390f35b6106bb61141e565b6040516106c891906125ee565b60405180910390f35b6106eb60048036038101906106e69190612085565b611424565b005b6106f5611788565b6040516107029190612376565b60405180910390f35b61072560048036038101906107209190611f95565b6117a0565b60405161073291906125ee565b60405180910390f35b610743611876565b60405161075091906125ee565b60405180910390f35b61076161187c565b60405161076e9190612376565b60405180910390f35b61077f611894565b60405161078c91906125ee565b60405180910390f35b61079d61189a565b6040516107aa91906125ee565b60405180910390f35b6060600380546107c2906127dd565b80601f01602080910402602001604051908101604052809291908181526020018280546107ee906127dd565b801561083b5780601f106108105761010080835404028352916020019161083b565b820191906000526020600020905b81548152906001019060200180831161081e57829003601f168201915b5050505050905090565b7370997970c51812dc3a010c7d01b50e0d17dc79c881565b6000600d60009054906101000a900460ff166108ae576040517f08c379a00000000000000000000000000000000000000000000000000000000081526004016108a5906124ae565b60405180910390fd5b60006108b861189f565b90506108c58185856118a7565b600191505092915050565b7344a7cc9762c267180e0e09d56a84d70629258e2981565b73a9ed9c85a7cc10ed3cb439934a25d737c6b8d00681565b6000600654905090565b600d60009054906101000a900460ff1681565b6000600d60009054906101000a900460ff1661096e576040517f08c379a0000000000000000000000000000000000000000000000000000000008152600401610965906124ae565b60405180910390fd5b600061097861189f565b9050610985858285611a72565b610990858585611afe565b60019150509392505050565b73d0bdc14f6457511655e2290c56fdad5a3f96ddea81565b600a5481565b6000600560009054906101000a900460ff16905090565b600581565b6000600d60009054906101000a900460ff16610a27576040517f08c379a0000000000000000000000000000000000000000000000000000000008152600401610a1e906124ae565b60405180910390fd5b6000610a3161189f565b9050610ac5818585600260008673ffffffffffffffffffffffffffffffffffffffff1673ffffffffffffffffffffffffffffffffffffffff16815260200190815260200160002060008973ffffffffffffffffffffffffffffffffffffffff1673ffffffffffffffffffffffffffffffffffffffff16815260200190815260200160002054610ac09190612640565b6118a7565b600191505092915050565b733c44cdddb6a900fa2b585dd299e03d12fa4293bc73ffffffffffffffffffffffffffffffffffffffff16610b0361189f565b73ffffffffffffffffffffffffffffffffffffffff1614610b59576040517f08c379a0000000000000000000000000000000000000000000000000000000008152600401610b50906124ce565b60405180910390fd5b6000600d60006101000a81548160ff021916908315150217905550565b62278d0081565b732f609c920c78535bf3ae62b92ffb131cb37b03eb81565b601481565b600f5481565b600581565b7370997970c51812dc3a010c7d01b50e0d17dc79c873ffffffffffffffffffffffffffffffffffffffff16610bd861189f565b73ffffffffffffffffffffffffffffffffffffffff1614610c2e576040517f08c379a0000000000000000000000000000000000000000000000000000000008152600401610c259061242e565b60405180910390fd5b600d60009054906101000a900460ff16610c7d576040517f08c379a0000000000000000000000000000000000000000000000000000000008152600401610c74906124ae565b60405180910390fd5b6014600a541115610cc3576040517f08c379a0000000000000000000000000000000000000000000000000000000008152600401610cba9061252e565b60405180910390fd5b600b54421015610d08576040517f08c379a0000000000000000000000000000000000000000000000000000000008152600401610cff906123ce565b60405180910390fd5b600080600a541115610dd95761271060006001600a54610d289190612721565b81548110610d5f577f4e487b7100000000000000000000000000000000000000000000000000000000600052603260045260246000fd5b90600052602060002001546000600a5481548110610da6577f4e487b7100000000000000000000000000000000000000000000000000000000600052603260045260246000fd5b9060005260206000200154610dbb9190612721565b600754610dc891906126c7565b610dd29190612696565b9050610e3d565b6127106000600a5481548110610e18577f4e487b7100000000000000000000000000000000000000000000000000000000600052603260045260246000fd5b9060005260206000200154600754610e3091906126c7565b610e3a9190612696565b90505b80600160007370997970c51812dc3a010c7d01b50e0d17dc79c873ffffffffffffffffffffffffffffffffffffffff1673ffffffffffffffffffffffffffffffffffffffff1681526020019081526020016000206000828254610ea09190612640565b925050819055508060066000828254610eb99190612640565b9250508190555062278d00600b6000828254610ed59190612640565b925050819055506001600a54610eeb9190612640565b600a819055507370997970c51812dc3a010c7d01b50e0d17dc79c873ffffffffffffffffffffffffffffffffffffffff16600073ffffffffffffffffffffffffffffffffffffffff167fddf252ad1be2c89b69c2b068fc378daa952ba7f163c4a11628f55a4df523b3ef83604051610f6391906125ee565b60405180910390a350565b600a81565b737de8e2b7f921ba243454b30406076a89fdf7c34381565b7370997970c51812dc3a010c7d01b50e0d17dc79c873ffffffffffffffffffffffffffffffffffffffff16610fbe61189f565b73ffffffffffffffffffffffffffffffffffffffff1614611014576040517f08c379a000000000000000000000000000000000000000000000000000000000815260040161100b9061242e565b60405180910390fd5b600d60009054906101000a900460ff16611063576040517f08c379a000000000000000000000000000000000000000000000000000000000815260040161105a906124ae565b60405180910390fd5b600060646009548361107591906126c7565b61107f9190612696565b905060006064603260075461109491906126c7565b61109e9190612696565b905080600f54106110e4576040517f08c379a00000000000000000000000000000000000000000000000000000000081526004016110db9061244e565b60405180910390fd5b8082600f546110f39190612640565b111561110a57600f54816111079190612721565b91505b6111287370997970c51812dc3a010c7d01b50e0d17dc79c883611d6c565b505050565b6000600160008373ffffffffffffffffffffffffffffffffffffffff1673ffffffffffffffffffffffffffffffffffffffff168152602001908152602001600020549050919050565b735b58e5df395f87ce0cd2a677b9a48cbb7cb3a84381565b6000818154811061119e57600080fd5b906000526020600020016000915090505481565b601981565b731fa257b5aa21e21bd6fa0f421638661b8a42290281565b600e5481565b6060600480546111e4906127dd565b80601f0160208091040260200160405190810160405280929190818152602001828054611210906127dd565b801561125d5780601f106112325761010080835404028352916020019161125d565b820191906000526020600020905b81548152906001019060200180831161124057829003601f168201915b5050505050905090565b6000600d60009054906101000a900460ff166112b8576040517f08c379a00000000000000000000000000000000000000000000000000000000081526004016112af906124ae565b60405180910390fd5b60006112c261189f565b90506000600260008373ffffffffffffffffffffffffffffffffffffffff1673ffffffffffffffffffffffffffffffffffffffff16815260200190815260200160002060008673ffffffffffffffffffffffffffffffffffffffff1673ffffffffffffffffffffffffffffffffffffffff16815260200190815260200160002054905083811015611388576040517f08c379a000000000000000000000000000000000000000000000000000000000815260040161137f9061250e565b60405180910390fd5b61139582868684036118a7565b60019250505092915050565b601481565b6000600d60009054906101000a900460ff166113f7576040517f08c379a00000000000000000000000000000000000000000000000000000000081526004016113ee906124ae565b60405180910390fd5b600061140161189f565b905061140e818585611afe565b600191505092915050565b600581565b600b5481565b7370997970c51812dc3a010c7d01b50e0d17dc79c873ffffffffffffffffffffffffffffffffffffffff1661145761189f565b73ffffffffffffffffffffffffffffffffffffffff16146114ad576040517f08c379a00000000000000000000000000000000000000000000000000000000081526004016114a49061242e565b60405180910390fd5b600d60009054906101000a900460ff166114fc576040517f08c379a00000000000000000000000000000000000000000000000000000000081526004016114f3906124ae565b60405180910390fd5b60088160ff1610611542576040517f08c379a00000000000000000000000000000000000000000000000000000000081526004016115399061240e565b60405180910390fd5b60088160ff168154811061157f577f4e487b7100000000000000000000000000000000000000000000000000000000600052603260045260246000fd5b90600052602060002090602091828204019190069054906101000a900460ff16156115df576040517f08c379a00000000000000000000000000000000000000000000000000000000081526004016115d69061254e565b60405180910390fd5b60008060008360ff16141561160e57732f609c920c78535bf3ae62b92ffb131cb37b03eb915060059050611745565b60018360ff16141561163a5773d0bdc14f6457511655e2290c56fdad5a3f96ddea9150600a9050611744565b60028360ff16141561166657731fa257b5aa21e21bd6fa0f421638661b8a422902915060059050611743565b60038360ff16141561169257737de8e2b7f921ba243454b30406076a89fdf7c343915060059050611742565b60048360ff1614156116be57735b58e5df395f87ce0cd2a677b9a48cbb7cb3a8439150600a9050611741565b60058360ff1614156116ea5773333431cdae737cd1bf6ad26c22e443700710d819915060149050611740565b60068360ff1614156117165773a9ed9c85a7cc10ed3cb439934a25d737c6b8d00691506019905061173f565b60078360ff16141561173e577344a7cc9762c267180e0e09d56a84d70629258e299150601490505b5b5b5b5b5b5b5b600060648260075461175791906126c7565b6117619190612696565b90506117827370997970c51812dc3a010c7d01b50e0d17dc79c88483611afe565b50505050565b733c44cdddb6a900fa2b585dd299e03d12fa4293bc81565b6000600d60009054906101000a900460ff166117f1576040517f08c379a00000000000000000000000000000000000000000000000000000000081526004016117e8906124ae565b60405180910390fd5b600260008473ffffffffffffffffffffffffffffffffffffffff1673ffffffffffffffffffffffffffffffffffffffff16815260200190815260200160002060008373ffffffffffffffffffffffffffffffffffffffff1673ffffffffffffffffffffffffffffffffffffffff16815260200190815260200160002054905092915050565b600c5481565b73333431cdae737cd1bf6ad26c22e443700710d81981565b60095481565b600a81565b600033905090565b600073ffffffffffffffffffffffffffffffffffffffff168373ffffffffffffffffffffffffffffffffffffffff161415611917576040517f08c379a000000000000000000000000000000000000000000000000000000000815260040161190e9061246e565b60405180910390fd5b600073ffffffffffffffffffffffffffffffffffffffff168273ffffffffffffffffffffffffffffffffffffffff161415611987576040517f08c379a000000000000000000000000000000000000000000000000000000000815260040161197e9061258e565b60405180910390fd5b80600260008573ffffffffffffffffffffffffffffffffffffffff1673ffffffffffffffffffffffffffffffffffffffff16815260200190815260200160002060008473ffffffffffffffffffffffffffffffffffffffff1673ffffffffffffffffffffffffffffffffffffffff168152602001908152602001600020819055508173ffffffffffffffffffffffffffffffffffffffff168373ffffffffffffffffffffffffffffffffffffffff167f8c5be1e5ebec7d5bd14f71427d1e84f3dd0314c0f7b2291e5b200ac8c7c3b92583604051611a6591906125ee565b60405180910390a3505050565b6000611a7e84846117a0565b90507fffffffffffffffffffffffffffffffffffffffffffffffffffffffffffffffff8114611af85781811015611aea576040517f08c379a0000000000000000000000000000000000000000000000000000000008152600401611ae1906124ee565b60405180910390fd5b611af784848484036118a7565b5b50505050565b600073ffffffffffffffffffffffffffffffffffffffff168373ffffffffffffffffffffffffffffffffffffffff161415611b6e576040517f08c379a0000000000000000000000000000000000000000000000000000000008152600401611b659061256e565b60405180910390fd5b600073ffffffffffffffffffffffffffffffffffffffff168273ffffffffffffffffffffffffffffffffffffffff161415611bde576040517f08c379a0000000000000000000000000000000000000000000000000000000008152600401611bd59061248e565b60405180910390fd5b6000600160008573ffffffffffffffffffffffffffffffffffffffff1673ffffffffffffffffffffffffffffffffffffffff16815260200190815260200160002054905081811015611c65576040517f08c379a0000000000000000000000000000000000000000000000000000000008152600401611c5c906123ee565b60405180910390fd5b818103600160008673ffffffffffffffffffffffffffffffffffffffff1673ffffffffffffffffffffffffffffffffffffffff1681526020019081526020016000208190555081600160008573ffffffffffffffffffffffffffffffffffffffff1673ffffffffffffffffffffffffffffffffffffffff1681526020019081526020016000206000828254611cfa9190612640565b925050819055508273ffffffffffffffffffffffffffffffffffffffff168473ffffffffffffffffffffffffffffffffffffffff167fddf252ad1be2c89b69c2b068fc378daa952ba7f163c4a11628f55a4df523b3ef84604051611d5e91906125ee565b60405180910390a350505050565b600073ffffffffffffffffffffffffffffffffffffffff168273ffffffffffffffffffffffffffffffffffffffff161415611ddc576040517f08c379a0000000000000000000000000000000000000000000000000000000008152600401611dd3906125ae565b60405180910390fd5b6000600160008473ffffffffffffffffffffffffffffffffffffffff1673ffffffffffffffffffffffffffffffffffffffff16815260200190815260200160002054905081811015611e63576040517f08c379a0000000000000000000000000000000000000000000000000000000008152600401611e5a906125ce565b60405180910390fd5b818103600160008573ffffffffffffffffffffffffffffffffffffffff1673ffffffffffffffffffffffffffffffffffffffff168152602001908152602001600020819055508160066000828254611ebb9190612721565b92505081905550600073ffffffffffffffffffffffffffffffffffffffff168373ffffffffffffffffffffffffffffffffffffffff167fddf252ad1be2c89b69c2b068fc378daa952ba7f163c4a11628f55a4df523b3ef84604051611f2091906125ee565b60405180910390a3505050565b600081359050611f3c81612d7a565b92915050565b600081359050611f5181612d91565b92915050565b600081359050611f6681612da8565b92915050565b600060208284031215611f7e57600080fd5b6000611f8c84828501611f2d565b91505092915050565b60008060408385031215611fa857600080fd5b6000611fb685828601611f2d565b9250506020611fc785828601611f2d565b9150509250929050565b600080600060608486031215611fe657600080fd5b6000611ff486828701611f2d565b935050602061200586828701611f2d565b925050604061201686828701611f42565b9150509250925092565b6000806040838503121561203357600080fd5b600061204185828601611f2d565b925050602061205285828601611f42565b9150509250929050565b60006020828403121561206e57600080fd5b600061207c84828501611f42565b91505092915050565b60006020828403121561209757600080fd5b60006120a584828501611f57565b91505092915050565b6120b781612755565b82525050565b6120c681612767565b82525050565b60006120d782612624565b6120e1818561262f565b93506120f18185602086016127aa565b6120fa8161289c565b840191505092915050565b600061211260268361262f565b915061211d826128ad565b604082019050919050565b600061213560288361262f565b9150612140826128fc565b604082019050919050565b600061215860238361262f565b91506121638261294b565b604082019050919050565b600061217b602d8361262f565b91506121868261299a565b604082019050919050565b600061219e60238361262f565b91506121a9826129e9565b604082019050919050565b60006121c160268361262f565b91506121cc82612a38565b604082019050919050565b60006121e460258361262f565b91506121ef82612a87565b604082019050919050565b6000612207601c8361262f565b915061221282612ad6565b602082019050919050565b600061222a602d8361262f565b915061223582612aff565b604082019050919050565b600061224d601f8361262f565b915061225882612b4e565b602082019050919050565b600061227060278361262f565b915061227b82612b77565b604082019050919050565b6000612293601f8361262f565b915061229e82612bc6565b602082019050919050565b60006122b660378361262f565b91506122c182612bef565b604082019050919050565b60006122d960278361262f565b91506122e482612c3e565b604082019050919050565b60006122fc60248361262f565b915061230782612c8d565b604082019050919050565b600061231f60238361262f565b915061232a82612cdc565b604082019050919050565b600061234260248361262f565b915061234d82612d2b565b604082019050919050565b61236181612793565b82525050565b6123708161279d565b82525050565b600060208201905061238b60008301846120ae565b92915050565b60006020820190506123a660008301846120bd565b92915050565b600060208201905081810360008301526123c681846120cc565b905092915050565b600060208201905081810360008301526123e781612105565b9050919050565b6000602082019050818103600083015261240781612128565b9050919050565b600060208201905081810360008301526124278161214b565b9050919050565b600060208201905081810360008301526124478161216e565b9050919050565b6000602082019050818103600083015261246781612191565b9050919050565b60006020820190508181036000830152612487816121b4565b9050919050565b600060208201905081810360008301526124a7816121d7565b9050919050565b600060208201905081810360008301526124c7816121fa565b9050919050565b600060208201905081810360008301526124e78161221d565b9050919050565b6000602082019050818103600083015261250781612240565b9050919050565b6000602082019050818103600083015261252781612263565b9050919050565b6000602082019050818103600083015261254781612286565b9050919050565b60006020820190508181036000830152612567816122a9565b9050919050565b60006020820190508181036000830152612587816122cc565b9050919050565b600060208201905081810360008301526125a7816122ef565b9050919050565b600060208201905081810360008301526125c781612312565b9050919050565b600060208201905081810360008301526125e781612335565b9050919050565b60006020820190506126036000830184612358565b92915050565b600060208201905061261e6000830184612367565b92915050565b600081519050919050565b600082825260208201905092915050565b600061264b82612793565b915061265683612793565b9250827fffffffffffffffffffffffffffffffffffffffffffffffffffffffffffffffff0382111561268b5761268a61280f565b5b828201905092915050565b60006126a182612793565b91506126ac83612793565b9250826126bc576126bb61283e565b5b828204905092915050565b60006126d282612793565b91506126dd83612793565b9250817fffffffffffffffffffffffffffffffffffffffffffffffffffffffffffffffff04831182151516156127165761271561280f565b5b828202905092915050565b600061272c82612793565b915061273783612793565b92508282101561274a5761274961280f565b5b828203905092915050565b600061276082612773565b9050919050565b60008115159050919050565b600073ffffffffffffffffffffffffffffffffffffffff82169050919050565b6000819050919050565b600060ff82169050919050565b60005b838110156127c85780820151818401526020810190506127ad565b838111156127d7576000848401525b50505050565b600060028204905060018216806127f557607f821691505b602082108114156128095761280861286d565b5b50919050565b7f4e487b7100000000000000000000000000000000000000000000000000000000600052601160045260246000fd5b7f4e487b7100000000000000000000000000000000000000000000000000000000600052601260045260246000fd5b7f4e487b7100000000000000000000000000000000000000000000000000000000600052602260045260246000fd5b6000601f19601f8301169050919050565b7f56454c414d49533a2069742069736e277420746865206973737561636520746960008201527f6d65206e6f770000000000000000000000000000000000000000000000000000602082015250565b7f56454c414d49533a207472616e7366657220616d6f756e74206578636565647360008201527f2062616c616e6365000000000000000000000000000000000000000000000000602082015250565b7f56454c414d49533a20696e646578206d757374206265206c657373207468616e60008201527f20382e0000000000000000000000000000000000000000000000000000000000602082015250565b7f56454c414d49533a2063616c6c65722069736e2774206d616e61676572206f6660008201527f2074686520636f6e747261637400000000000000000000000000000000000000602082015250565b7f56454c414d49533a20746f6b656e73206861766520616c72656164792062757260008201527f6e65640000000000000000000000000000000000000000000000000000000000602082015250565b7f56454c414d49533a20617070726f76652066726f6d20746865207a65726f206160008201527f6464726573730000000000000000000000000000000000000000000000000000602082015250565b7f56454c414d49533a207472616e7366657220746f20746865207a65726f20616460008201527f6472657373000000000000000000000000000000000000000000000000000000602082015250565b7f56454c414d49533a20636f6e74726163742069732073746f7070656400000000600082015250565b7f56454c414d49533a2063616c6c65722069736e27742073746f70706572206f6660008201527f2074686520636f6e747261637400000000000000000000000000000000000000602082015250565b7f56454c414d49533a20696e73756666696369656e7420616c6c6f77616e636500600082015250565b7f56454c414d49533a2064656372656173656420616c6c6f77616e63652062656c60008201527f6f77207a65726f00000000000000000000000000000000000000000000000000602082015250565b7f56454c414d49533a20746f6b656e206973737561636520697320656e64656400600082015250565b7f56454c414d49533a20646973747269627574696f6e207769746820746869732060008201527f696e6465782068616420616c726561647920646f6e652e000000000000000000602082015250565b7f56454c414d49533a207472616e736665722066726f6d20746865207a65726f2060008201527f6164647265737300000000000000000000000000000000000000000000000000602082015250565b7f56454c414d49533a20617070726f766520746f20746865207a65726f2061646460008201527f7265737300000000000000000000000000000000000000000000000000000000602082015250565b7f56454c414d49533a206275726e2066726f6d20746865207a65726f206164647260008201527f6573730000000000000000000000000000000000000000000000000000000000602082015250565b7f56454c414d49533a206275726e20616d6f756e7420657863656564732062616c60008201527f616e636500000000000000000000000000000000000000000000000000000000602082015250565b612d8381612755565b8114612d8e57600080fd5b50565b612d9a81612793565b8114612da557600080fd5b50565b612db18161279d565b8114612dbc57600080fd5b5056fea26469706673582212203c69560ff447d806cfc2ca8ccec9442092aeb0379f09e492d8734ac1eeee6d3f64736f6c63430008040033",
  "linkReferences": {},
  "deployedLinkReferences": {}
}